{
  "_format": "hh-sol-artifact-1",
  "contractName": "Hermez",
  "sourceName": "contracts/hermez/Hermez.sol",
  "abi": [
    {
      "anonymous": false,
      "inputs": [
        {
          "indexed": true,
          "internalType": "address",
          "name": "tokenAddress",
          "type": "address"
        },
        {
          "indexed": false,
          "internalType": "uint32",
          "name": "tokenID",
          "type": "uint32"
        }
      ],
      "name": "AddToken",
      "type": "event"
    },
    {
      "anonymous": false,
      "inputs": [
        {
          "indexed": true,
          "internalType": "uint32",
          "name": "batchNum",
          "type": "uint32"
        },
        {
          "indexed": false,
          "internalType": "uint16",
          "name": "l1UserTxsLen",
          "type": "uint16"
        }
      ],
      "name": "ForgeBatch",
      "type": "event"
    },
    {
      "anonymous": false,
      "inputs": [
        {
          "indexed": false,
          "internalType": "uint8",
          "name": "forgeL1L2BatchTimeout",
          "type": "uint8"
        },
        {
          "indexed": false,
          "internalType": "uint256",
          "name": "feeAddToken",
          "type": "uint256"
        },
        {
          "indexed": false,
          "internalType": "uint64",
          "name": "withdrawalDelay",
          "type": "uint64"
        }
      ],
      "name": "InitializeHermezEvent",
      "type": "event"
    },
    {
      "anonymous": false,
      "inputs": [
        {
          "indexed": true,
          "internalType": "uint32",
          "name": "queueIndex",
          "type": "uint32"
        },
        {
          "indexed": true,
          "internalType": "uint8",
          "name": "position",
          "type": "uint8"
        },
        {
          "indexed": false,
          "internalType": "bytes",
          "name": "l1UserTx",
          "type": "bytes"
        }
      ],
      "name": "L1UserTxEvent",
      "type": "event"
    },
    {
      "anonymous": false,
      "inputs": [],
      "name": "SafeMode",
      "type": "event"
    },
    {
      "anonymous": false,
      "inputs": [
        {
          "indexed": true,
          "internalType": "uint8",
          "name": "numBucket",
          "type": "uint8"
        },
        {
          "indexed": true,
          "internalType": "uint256",
          "name": "blockStamp",
          "type": "uint256"
        },
        {
          "indexed": false,
          "internalType": "uint256",
          "name": "withdrawals",
          "type": "uint256"
        }
      ],
      "name": "UpdateBucketWithdraw",
      "type": "event"
    },
    {
      "anonymous": false,
      "inputs": [
        {
          "indexed": false,
          "internalType": "uint256[]",
          "name": "arrayBuckets",
          "type": "uint256[]"
        }
      ],
      "name": "UpdateBucketsParameters",
      "type": "event"
    },
    {
      "anonymous": false,
      "inputs": [
        {
          "indexed": false,
          "internalType": "uint256",
          "name": "newFeeAddToken",
          "type": "uint256"
        }
      ],
      "name": "UpdateFeeAddToken",
      "type": "event"
    },
    {
      "anonymous": false,
      "inputs": [
        {
          "indexed": false,
          "internalType": "uint8",
          "name": "newForgeL1L2BatchTimeout",
          "type": "uint8"
        }
      ],
      "name": "UpdateForgeL1L2BatchTimeout",
      "type": "event"
    },
    {
      "anonymous": false,
      "inputs": [
        {
          "indexed": false,
          "internalType": "address[]",
          "name": "addressArray",
          "type": "address[]"
        },
        {
          "indexed": false,
          "internalType": "uint64[]",
          "name": "valueArray",
          "type": "uint64[]"
        }
      ],
      "name": "UpdateTokenExchange",
      "type": "event"
    },
    {
      "anonymous": false,
      "inputs": [
        {
          "indexed": false,
          "internalType": "uint64",
          "name": "newWithdrawalDelay",
          "type": "uint64"
        }
      ],
      "name": "UpdateWithdrawalDelay",
      "type": "event"
    },
    {
      "anonymous": false,
      "inputs": [
        {
          "indexed": true,
          "internalType": "uint48",
          "name": "idx",
          "type": "uint48"
        },
        {
          "indexed": true,
          "internalType": "uint32",
          "name": "numExitRoot",
          "type": "uint32"
        },
        {
          "indexed": true,
          "internalType": "bool",
          "name": "instantWithdraw",
          "type": "bool"
        }
      ],
      "name": "WithdrawEvent",
      "type": "event"
    },
    {
      "inputs": [],
      "name": "ABSOLUTE_MAX_L1L2BATCHTIMEOUT",
      "outputs": [
        {
          "internalType": "uint8",
          "name": "",
          "type": "uint8"
        }
      ],
      "stateMutability": "view",
      "type": "function"
    },
    {
      "inputs": [],
      "name": "ACCOUNT_CREATION_HASH",
      "outputs": [
        {
          "internalType": "bytes32",
          "name": "",
          "type": "bytes32"
        }
      ],
      "stateMutability": "view",
      "type": "function"
    },
    {
      "inputs": [],
      "name": "AUTHORISE_TYPEHASH",
      "outputs": [
        {
          "internalType": "bytes32",
          "name": "",
          "type": "bytes32"
        }
      ],
      "stateMutability": "view",
      "type": "function"
    },
    {
      "inputs": [],
      "name": "DOMAIN_SEPARATOR",
      "outputs": [
        {
          "internalType": "bytes32",
          "name": "domainSeparator",
          "type": "bytes32"
        }
      ],
      "stateMutability": "view",
      "type": "function"
    },
    {
      "inputs": [],
      "name": "EIP712DOMAIN_HASH",
      "outputs": [
        {
          "internalType": "bytes32",
          "name": "",
          "type": "bytes32"
        }
      ],
      "stateMutability": "view",
      "type": "function"
    },
    {
      "inputs": [],
      "name": "HERMEZ_NETWORK_HASH",
      "outputs": [
        {
          "internalType": "bytes32",
          "name": "",
          "type": "bytes32"
        }
      ],
      "stateMutability": "view",
      "type": "function"
    },
    {
      "inputs": [],
      "name": "NAME_HASH",
      "outputs": [
        {
          "internalType": "bytes32",
          "name": "",
          "type": "bytes32"
        }
      ],
      "stateMutability": "view",
      "type": "function"
    },
    {
      "inputs": [],
      "name": "VERSION_HASH",
      "outputs": [
        {
          "internalType": "bytes32",
          "name": "",
          "type": "bytes32"
        }
      ],
      "stateMutability": "view",
      "type": "function"
    },
    {
      "inputs": [
        {
          "internalType": "uint256",
          "name": "babyPubKey",
          "type": "uint256"
        },
        {
          "internalType": "uint48",
          "name": "fromIdx",
          "type": "uint48"
        },
        {
          "internalType": "uint40",
          "name": "loadAmountF",
          "type": "uint40"
        },
        {
          "internalType": "uint40",
          "name": "amountF",
          "type": "uint40"
        },
        {
          "internalType": "uint32",
          "name": "tokenID",
          "type": "uint32"
        },
        {
          "internalType": "uint48",
          "name": "toIdx",
          "type": "uint48"
        },
        {
          "internalType": "bytes",
          "name": "permit",
          "type": "bytes"
        }
      ],
      "name": "addL1Transaction",
      "outputs": [],
      "stateMutability": "payable",
      "type": "function"
    },
    {
      "inputs": [
        {
          "internalType": "address",
          "name": "tokenAddress",
          "type": "address"
        },
        {
          "internalType": "bytes",
          "name": "permit",
          "type": "bytes"
        }
      ],
      "name": "addToken",
      "outputs": [],
      "stateMutability": "nonpayable",
      "type": "function"
    },
    {
      "inputs": [
        {
          "internalType": "int256",
          "name": "",
          "type": "int256"
        }
      ],
      "name": "buckets",
      "outputs": [
        {
          "internalType": "uint256",
          "name": "",
          "type": "uint256"
        }
      ],
      "stateMutability": "view",
      "type": "function"
    },
    {
      "inputs": [
        {
          "internalType": "uint32",
          "name": "",
          "type": "uint32"
        },
        {
          "internalType": "uint48",
          "name": "",
          "type": "uint48"
        }
      ],
      "name": "exitNullifierMap",
      "outputs": [
        {
          "internalType": "bool",
          "name": "",
          "type": "bool"
        }
      ],
      "stateMutability": "view",
      "type": "function"
    },
    {
      "inputs": [
        {
          "internalType": "uint32",
          "name": "",
          "type": "uint32"
        }
      ],
      "name": "exitRootsMap",
      "outputs": [
        {
          "internalType": "uint256",
          "name": "",
          "type": "uint256"
        }
      ],
      "stateMutability": "view",
      "type": "function"
    },
    {
      "inputs": [],
      "name": "feeAddToken",
      "outputs": [
        {
          "internalType": "uint256",
          "name": "",
          "type": "uint256"
        }
      ],
      "stateMutability": "view",
      "type": "function"
    },
    {
      "inputs": [
        {
          "internalType": "uint48",
          "name": "newLastIdx",
          "type": "uint48"
        },
        {
          "internalType": "uint256",
          "name": "newStRoot",
          "type": "uint256"
        },
        {
          "internalType": "uint256",
          "name": "newExitRoot",
          "type": "uint256"
        },
        {
          "internalType": "bytes",
          "name": "encodedL1CoordinatorTx",
          "type": "bytes"
        },
        {
          "internalType": "bytes",
          "name": "feeIdxCoordinator",
          "type": "bytes"
        },
        {
          "internalType": "uint8",
          "name": "verifierIdx",
          "type": "uint8"
        },
        {
          "internalType": "bool",
          "name": "l1Batch",
          "type": "bool"
        },
        {
          "internalType": "uint256[2]",
          "name": "proofA",
          "type": "uint256[2]"
        },
        {
          "internalType": "uint256[2][2]",
          "name": "proofB",
          "type": "uint256[2][2]"
        },
        {
          "internalType": "uint256[2]",
          "name": "proofC",
          "type": "uint256[2]"
        }
      ],
      "name": "forgeBatch",
      "outputs": [],
      "stateMutability": "nonpayable",
      "type": "function"
    },
    {
      "inputs": [],
      "name": "forgeL1L2BatchTimeout",
      "outputs": [
        {
          "internalType": "uint8",
          "name": "",
          "type": "uint8"
        }
      ],
      "stateMutability": "view",
      "type": "function"
    },
    {
      "inputs": [],
      "name": "getChainId",
      "outputs": [
        {
          "internalType": "uint256",
          "name": "chainId",
          "type": "uint256"
        }
      ],
      "stateMutability": "pure",
      "type": "function"
    },
    {
      "inputs": [],
      "name": "hermezAuctionContract",
      "outputs": [
        {
          "internalType": "contract IHermezAuctionProtocol",
          "name": "",
          "type": "address"
        }
      ],
      "stateMutability": "view",
      "type": "function"
    },
    {
      "inputs": [],
      "name": "hermezGovernanceAddress",
      "outputs": [
        {
          "internalType": "address",
          "name": "",
          "type": "address"
        }
      ],
      "stateMutability": "view",
      "type": "function"
    },
    {
      "inputs": [
        {
          "internalType": "address[]",
          "name": "_verifiers",
          "type": "address[]"
        },
        {
          "internalType": "uint256[]",
          "name": "_verifiersParams",
          "type": "uint256[]"
        },
        {
          "internalType": "address",
          "name": "_withdrawVerifier",
          "type": "address"
        },
        {
          "internalType": "address",
          "name": "_hermezAuctionContract",
          "type": "address"
        },
        {
          "internalType": "address",
          "name": "_tokenHEZ",
          "type": "address"
        },
        {
          "internalType": "uint8",
          "name": "_forgeL1L2BatchTimeout",
          "type": "uint8"
        },
        {
          "internalType": "uint256",
          "name": "_feeAddToken",
          "type": "uint256"
        },
        {
          "internalType": "address",
          "name": "_poseidon2Elements",
          "type": "address"
        },
        {
          "internalType": "address",
          "name": "_poseidon3Elements",
          "type": "address"
        },
        {
          "internalType": "address",
          "name": "_poseidon4Elements",
          "type": "address"
        },
        {
          "internalType": "address",
          "name": "_hermezGovernanceAddress",
          "type": "address"
        },
        {
          "internalType": "uint64",
          "name": "_withdrawalDelay",
          "type": "uint64"
        },
        {
          "internalType": "address",
          "name": "_withdrawDelayerContract",
          "type": "address"
        }
      ],
      "name": "initializeHermez",
      "outputs": [],
      "stateMutability": "nonpayable",
      "type": "function"
    },
    {
      "inputs": [
        {
          "internalType": "address",
          "name": "tokenAddress",
          "type": "address"
        },
        {
          "internalType": "uint192",
          "name": "amount",
          "type": "uint192"
        }
      ],
      "name": "instantWithdrawalViewer",
      "outputs": [
        {
          "internalType": "bool",
          "name": "",
          "type": "bool"
        }
      ],
      "stateMutability": "view",
      "type": "function"
    },
    {
      "inputs": [],
      "name": "lastForgedBatch",
      "outputs": [
        {
          "internalType": "uint32",
          "name": "",
          "type": "uint32"
        }
      ],
      "stateMutability": "view",
      "type": "function"
    },
    {
      "inputs": [],
      "name": "lastIdx",
      "outputs": [
        {
          "internalType": "uint48",
          "name": "",
          "type": "uint48"
        }
      ],
      "stateMutability": "view",
      "type": "function"
    },
    {
      "inputs": [],
      "name": "lastL1L2Batch",
      "outputs": [
        {
          "internalType": "uint64",
          "name": "",
          "type": "uint64"
        }
      ],
      "stateMutability": "view",
      "type": "function"
    },
    {
      "inputs": [
        {
          "internalType": "uint32",
          "name": "",
          "type": "uint32"
        }
      ],
      "name": "mapL1TxQueue",
      "outputs": [
        {
          "internalType": "bytes",
          "name": "",
          "type": "bytes"
        }
      ],
      "stateMutability": "view",
      "type": "function"
    },
    {
      "inputs": [],
      "name": "nBuckets",
      "outputs": [
        {
          "internalType": "uint256",
          "name": "",
          "type": "uint256"
        }
      ],
      "stateMutability": "view",
      "type": "function"
    },
    {
      "inputs": [],
      "name": "nextL1FillingQueue",
      "outputs": [
        {
          "internalType": "uint32",
          "name": "",
          "type": "uint32"
        }
      ],
      "stateMutability": "view",
      "type": "function"
    },
    {
      "inputs": [],
      "name": "nextL1ToForgeQueue",
      "outputs": [
        {
          "internalType": "uint32",
          "name": "",
          "type": "uint32"
        }
      ],
      "stateMutability": "view",
      "type": "function"
    },
    {
      "inputs": [
        {
          "internalType": "uint256",
          "name": "ceilUSD",
          "type": "uint256"
        },
        {
          "internalType": "uint256",
          "name": "blockStamp",
          "type": "uint256"
        },
        {
          "internalType": "uint256",
          "name": "withdrawals",
          "type": "uint256"
        },
        {
          "internalType": "uint256",
          "name": "rateBlocks",
          "type": "uint256"
        },
        {
          "internalType": "uint256",
          "name": "rateWithdrawals",
          "type": "uint256"
        },
        {
          "internalType": "uint256",
          "name": "maxWithdrawals",
          "type": "uint256"
        }
      ],
      "name": "packBucket",
      "outputs": [
        {
          "internalType": "uint256",
          "name": "ret",
          "type": "uint256"
        }
      ],
      "stateMutability": "pure",
      "type": "function"
    },
    {
      "inputs": [],
      "name": "registerTokensCount",
      "outputs": [
        {
          "internalType": "uint256",
          "name": "",
          "type": "uint256"
        }
      ],
      "stateMutability": "view",
      "type": "function"
    },
    {
      "inputs": [
        {
          "internalType": "uint256",
          "name": "",
          "type": "uint256"
        }
      ],
      "name": "rollupVerifiers",
      "outputs": [
        {
          "internalType": "contract VerifierRollupInterface",
          "name": "verifierInterface",
          "type": "address"
        },
        {
          "internalType": "uint256",
          "name": "maxTx",
          "type": "uint256"
        },
        {
          "internalType": "uint256",
          "name": "nLevels",
          "type": "uint256"
        }
      ],
      "stateMutability": "view",
      "type": "function"
    },
    {
      "inputs": [],
      "name": "rollupVerifiersLength",
      "outputs": [
        {
          "internalType": "uint256",
          "name": "",
          "type": "uint256"
        }
      ],
      "stateMutability": "view",
      "type": "function"
    },
    {
      "inputs": [],
      "name": "safeMode",
      "outputs": [],
      "stateMutability": "nonpayable",
      "type": "function"
    },
    {
      "inputs": [
        {
          "internalType": "uint32",
          "name": "",
          "type": "uint32"
        }
      ],
      "name": "stateRootMap",
      "outputs": [
        {
          "internalType": "uint256",
          "name": "",
          "type": "uint256"
        }
      ],
      "stateMutability": "view",
      "type": "function"
    },
    {
      "inputs": [
        {
          "internalType": "address",
          "name": "",
          "type": "address"
        }
      ],
      "name": "tokenExchange",
      "outputs": [
        {
          "internalType": "uint64",
          "name": "",
          "type": "uint64"
        }
      ],
      "stateMutability": "view",
      "type": "function"
    },
    {
      "inputs": [],
      "name": "tokenHEZ",
      "outputs": [
        {
          "internalType": "address",
          "name": "",
          "type": "address"
        }
      ],
      "stateMutability": "view",
      "type": "function"
    },
    {
      "inputs": [
        {
          "internalType": "uint256",
          "name": "",
          "type": "uint256"
        }
      ],
      "name": "tokenList",
      "outputs": [
        {
          "internalType": "address",
          "name": "",
          "type": "address"
        }
      ],
      "stateMutability": "view",
      "type": "function"
    },
    {
      "inputs": [
        {
          "internalType": "address",
          "name": "",
          "type": "address"
        }
      ],
      "name": "tokenMap",
      "outputs": [
        {
          "internalType": "uint256",
          "name": "",
          "type": "uint256"
        }
      ],
      "stateMutability": "view",
      "type": "function"
    },
    {
      "inputs": [
        {
          "internalType": "uint256",
          "name": "bucket",
          "type": "uint256"
        }
      ],
      "name": "unpackBucket",
      "outputs": [
        {
          "internalType": "uint256",
          "name": "ceilUSD",
          "type": "uint256"
        },
        {
          "internalType": "uint256",
          "name": "blockStamp",
          "type": "uint256"
        },
        {
          "internalType": "uint256",
          "name": "withdrawals",
          "type": "uint256"
        },
        {
          "internalType": "uint256",
          "name": "rateBlocks",
          "type": "uint256"
        },
        {
          "internalType": "uint256",
          "name": "rateWithdrawals",
          "type": "uint256"
        },
        {
          "internalType": "uint256",
          "name": "maxWithdrawals",
          "type": "uint256"
        }
      ],
      "stateMutability": "pure",
      "type": "function"
    },
    {
      "inputs": [
        {
          "internalType": "uint256[]",
          "name": "newBuckets",
          "type": "uint256[]"
        }
      ],
      "name": "updateBucketsParameters",
      "outputs": [],
      "stateMutability": "nonpayable",
      "type": "function"
    },
    {
      "inputs": [
        {
          "internalType": "uint256",
          "name": "newFeeAddToken",
          "type": "uint256"
        }
      ],
      "name": "updateFeeAddToken",
      "outputs": [],
      "stateMutability": "nonpayable",
      "type": "function"
    },
    {
      "inputs": [
        {
          "internalType": "uint8",
          "name": "newForgeL1L2BatchTimeout",
          "type": "uint8"
        }
      ],
      "name": "updateForgeL1L2BatchTimeout",
      "outputs": [],
      "stateMutability": "nonpayable",
      "type": "function"
    },
    {
      "inputs": [
        {
          "internalType": "address[]",
          "name": "addressArray",
          "type": "address[]"
        },
        {
          "internalType": "uint64[]",
          "name": "valueArray",
          "type": "uint64[]"
        }
      ],
      "name": "updateTokenExchange",
      "outputs": [],
      "stateMutability": "nonpayable",
      "type": "function"
    },
    {
      "inputs": [
        {
          "internalType": "uint64",
          "name": "newWithdrawalDelay",
          "type": "uint64"
        }
      ],
      "name": "updateWithdrawalDelay",
      "outputs": [],
      "stateMutability": "nonpayable",
      "type": "function"
    },
    {
      "inputs": [
        {
          "internalType": "uint256[2]",
          "name": "proofA",
          "type": "uint256[2]"
        },
        {
          "internalType": "uint256[2][2]",
          "name": "proofB",
          "type": "uint256[2][2]"
        },
        {
          "internalType": "uint256[2]",
          "name": "proofC",
          "type": "uint256[2]"
        },
        {
          "internalType": "uint32",
          "name": "tokenID",
          "type": "uint32"
        },
        {
          "internalType": "uint192",
          "name": "amount",
          "type": "uint192"
        },
        {
          "internalType": "uint32",
          "name": "numExitRoot",
          "type": "uint32"
        },
        {
          "internalType": "uint48",
          "name": "idx",
          "type": "uint48"
        },
        {
          "internalType": "bool",
          "name": "instantWithdraw",
          "type": "bool"
        }
      ],
      "name": "withdrawCircuit",
      "outputs": [],
      "stateMutability": "nonpayable",
      "type": "function"
    },
    {
      "inputs": [],
      "name": "withdrawDelayerContract",
      "outputs": [
        {
          "internalType": "contract IWithdrawalDelayer",
          "name": "",
          "type": "address"
        }
      ],
      "stateMutability": "view",
      "type": "function"
    },
    {
      "inputs": [
        {
          "internalType": "uint32",
          "name": "tokenID",
          "type": "uint32"
        },
        {
          "internalType": "uint192",
          "name": "amount",
          "type": "uint192"
        },
        {
          "internalType": "uint256",
          "name": "babyPubKey",
          "type": "uint256"
        },
        {
          "internalType": "uint32",
          "name": "numExitRoot",
          "type": "uint32"
        },
        {
          "internalType": "uint256[]",
          "name": "siblings",
          "type": "uint256[]"
        },
        {
          "internalType": "uint48",
          "name": "idx",
          "type": "uint48"
        },
        {
          "internalType": "bool",
          "name": "instantWithdraw",
          "type": "bool"
        }
      ],
      "name": "withdrawMerkleProof",
      "outputs": [],
      "stateMutability": "nonpayable",
      "type": "function"
    },
    {
      "inputs": [],
      "name": "withdrawVerifier",
      "outputs": [
        {
          "internalType": "contract VerifierWithdrawInterface",
          "name": "",
          "type": "address"
        }
      ],
      "stateMutability": "view",
      "type": "function"
    },
    {
      "inputs": [],
      "name": "withdrawalDelay",
      "outputs": [
        {
          "internalType": "uint64",
          "name": "",
          "type": "uint64"
        }
      ],
      "stateMutability": "view",
      "type": "function"
    }
  ],
  "bytecode": "0x608060405234801561001057600080fd5b50615a95806100206000396000f3fe6080604052600436106102ad5760003560e01c8063864eb16411610175578063bded9bb8116100dc578063d486645c11610095578063e62f6b921161006f578063e62f6b9214610fa4578063ef4a5c4a14610fb9578063f1f2fcab14610328578063f84f92ee14610fec576102ad565b8063d486645c14610de8578063d9d4ca4414610e18578063dc3e718e14610eff576102ad565b8063bded9bb814610c84578063c473af3314610c99578063c727305314610cae578063cbd7b5fb14610d5e578063ccd226a714610d8b578063d0f32e6714610dd3576102ad565b80639f34e9a31161012e5780639f34e9a314610a80578063a327583814610a95578063a7ab696114610aaa578063abe3219c14610abf578063ac300ec914610ad4578063b807d41514610b82576102ad565b8063864eb1641461096457806395a09f2a146109795780639ce2ad42146109a45780639e00d7ea14610a115780639e4e731814610a415780639ead722214610a56576102ad565b80633408e4701161021957806344e0b2ce116101d257806344e0b2ce146106f3578063599897e31461070857806370c2f1c01461089a57806379a135e3146109255780637ba3a5e01461093a57806384ef9ed41461094f576102ad565b80633408e470146105945780633644e515146105a9578063375110aa146105be57806338330200146106145780633ee641ea146106665780633f26715514610696576102ad565b80630ee8e52b1161026b5780630ee8e52b146103cb5780631300aff0146103f95780631a748c2d1461040e5780631b0a8223146105405780632bd8362614610555578063314e5eda1461056a576102ad565b80624aca6e146102b2578063013f7852146102f757806304622c2e14610328578063061d09641461033d57806307feef6e146103675780630dd94b961461037c575b600080fd5b3480156102be57600080fd5b506102e5600480360360208110156102d557600080fd5b50356001600160a01b031661102a565b60408051918252519081900360200190f35b34801561030357600080fd5b5061030c61103c565b604080516001600160a01b039092168252519081900360200190f35b34801561033457600080fd5b506102e561104b565b34801561034957600080fd5b506102e56004803603602081101561036057600080fd5b503561106f565b34801561037357600080fd5b506102e5611081565b34801561038857600080fd5b506103af6004803603602081101561039f57600080fd5b50356001600160a01b0316611087565b604080516001600160401b039092168252519081900360200190f35b3480156103d757600080fd5b506103e06110a2565b6040805163ffffffff9092168252519081900360200190f35b34801561040557600080fd5b506102e56110b5565b34801561041a57600080fd5b5061053e6004803603604081101561043157600080fd5b810190602081018135600160201b81111561044b57600080fd5b82018360208201111561045d57600080fd5b803590602001918460208302840111600160201b8311171561047e57600080fd5b9190808060200260200160405190810160405280939291908181526020018383602002808284376000920191909152509295949360208101935035915050600160201b8111156104cd57600080fd5b8201836020820111156104df57600080fd5b803590602001918460208302840111600160201b8311171561050057600080fd5b9190808060200260200160405190810160405280939291908181526020018383602002808284376000920191909152509295506110d9945050505050565b005b34801561054c57600080fd5b5061030c61129c565b34801561056157600080fd5b5061030c6112ab565b34801561057657600080fd5b5061053e6004803603602081101561058d57600080fd5b50356112ba565b3480156105a057600080fd5b506102e561133e565b3480156105b557600080fd5b506102e5611342565b3480156105ca57600080fd5b50610600600480360360408110156105e157600080fd5b5080356001600160a01b031690602001356001600160c01b0316611400565b604080519115158252519081900360200190f35b34801561062057600080fd5b5061063e6004803603602081101561063757600080fd5b50356114e1565b604080516001600160a01b039094168452602084019290925282820152519081900360600190f35b34801561067257600080fd5b506102e56004803603602081101561068957600080fd5b503563ffffffff1661151b565b3480156106a257600080fd5b506106c0600480360360208110156106b957600080fd5b503561152d565b604080519687526020870195909552858501939093526060850191909152608084015260a0830152519081900360c00190f35b3480156106ff57600080fd5b506103e0611562565b34801561071457600080fd5b5061053e60048036036101a081101561072c57600080fd5b810190602081018135600160201b81111561074657600080fd5b82018360208201111561075857600080fd5b803590602001918460208302840111600160201b8311171561077957600080fd5b9190808060200260200160405190810160405280939291908181526020018383602002808284376000920191909152509295949360208101935035915050600160201b8111156107c857600080fd5b8201836020820111156107da57600080fd5b803590602001918460208302840111600160201b831117156107fb57600080fd5b919080806020026020016040519081016040528093929190818152602001838360200280828437600092019190915250929550506001600160a01b03833581169450602084013581169360408101358216935060ff606082013516925060808101359160a082013581169160c081013582169160e08201358116916101008101358216916001600160401b036101208301351691610140013516611575565b3480156108a657600080fd5b5061053e600480360360408110156108bd57600080fd5b6001600160a01b038235169190810190604081016020820135600160201b8111156108e757600080fd5b8201836020820111156108f957600080fd5b803590602001918460018302840111600160201b8311171561091a57600080fd5b509092509050611813565b34801561093157600080fd5b5061030c611a9c565b34801561094657600080fd5b506102e5611aab565b34801561095b57600080fd5b506103af611ab1565b34801561097057600080fd5b5061030c611ac0565b34801561098557600080fd5b5061098e611acf565b6040805160ff9092168252519081900360200190f35b3480156109b057600080fd5b5061053e60048036036101a08110156109c857600080fd5b506040810160c0820163ffffffff6101008401358116906001600160c01b0361012086013516906101408601351665ffffffffffff610160870135166101808701351515611ad4565b348015610a1d57600080fd5b506102e560048036036020811015610a3457600080fd5b503563ffffffff16611ea7565b348015610a4d57600080fd5b506102e5611eb9565b348015610a6257600080fd5b5061030c60048036036020811015610a7957600080fd5b5035611edd565b348015610a8c57600080fd5b506102e5611f04565b348015610aa157600080fd5b5061098e611f0a565b348015610ab657600080fd5b506103af611f1a565b348015610acb57600080fd5b5061053e611f30565b348015610ae057600080fd5b5061053e60048036036020811015610af757600080fd5b810190602081018135600160201b811115610b1157600080fd5b820183602082011115610b2357600080fd5b803590602001918460208302840111600160201b83111715610b4457600080fd5b91908080602002602001604051908101604052809392919081815260200183836020028082843760009201919091525092955061206a945050505050565b348015610b8e57600080fd5b5061053e60048036036101e0811015610ba657600080fd5b65ffffffffffff8235169160208101359160408201359190810190608081016060820135600160201b811115610bdb57600080fd5b820183602082011115610bed57600080fd5b803590602001918460018302840111600160201b83111715610c0e57600080fd5b919390929091602081019035600160201b811115610c2b57600080fd5b820183602082011115610c3d57600080fd5b803590602001918460018302840111600160201b83111715610c5e57600080fd5b919350915060ff813516906020810135151590604081019060808101906101000161225a565b348015610c9057600080fd5b506102e56126d6565b348015610ca557600080fd5b506102e56126dc565b61053e600480360360e0811015610cc457600080fd5b81359165ffffffffffff602082013581169264ffffffffff604084013581169360608101359091169263ffffffff6080830135169260a0830135909116919081019060e0810160c0820135600160201b811115610d2057600080fd5b820183602082011115610d3257600080fd5b803590602001918460018302840111600160201b83111715610d5357600080fd5b509092509050612700565b348015610d6a57600080fd5b5061053e60048036036020811015610d8157600080fd5b503560ff16612a16565b348015610d9757600080fd5b506102e5600480360360c0811015610dae57600080fd5b5080359060208101359060408101359060608101359060808101359060a00135612af6565b348015610ddf57600080fd5b506103e0612b23565b348015610df457600080fd5b50610dfd612b36565b6040805165ffffffffffff9092168252519081900360200190f35b348015610e2457600080fd5b5061053e600480360360e0811015610e3b57600080fd5b63ffffffff82358116926001600160c01b0360208201351692604082013592606083013516919081019060a081016080820135600160201b811115610e7f57600080fd5b820183602082011115610e9157600080fd5b803590602001918460208302840111600160201b83111715610eb257600080fd5b9190808060200260200160405190810160405280939291908181526020018383602002808284376000920191909152509295505065ffffffffffff83351693505050602001351515612b4b565b348015610f0b57600080fd5b50610f2f60048036036020811015610f2257600080fd5b503563ffffffff16612d3b565b6040805160208082528351818301528351919283929083019185019080838360005b83811015610f69578181015183820152602001610f51565b50505050905090810190601f168015610f965780820380516001836020036101000a031916815260200191505b509250505060405180910390f35b348015610fb057600080fd5b506102e5612dd6565b348015610fc557600080fd5b5061053e60048036036020811015610fdc57600080fd5b50356001600160401b0316612dfa565b348015610ff857600080fd5b506106006004803603604081101561100f57600080fd5b50803563ffffffff16906020013565ffffffffffff16612eef565b600e6020526000908152604090205481565b6005546001600160a01b031681565b7fbe287413178bfeddef8d9753ad4be825ae998706a6dabff23978b59dccaea0ad81565b60046020526000908152604090205481565b60035481565b6007602052600090815260409020546001600160401b031681565b601254600160601b900463ffffffff1681565b7fff946cf82975b1a2b6e6d28c9a76a4b8d7a1fd0592b785cb92771933310f9ee781565b6005546001600160a01b031633146111225760405162461bcd60e51b815260040180806020018281038252603f815260200180615898603f913960400191505060405180910390fd5b80518251146111625760405162461bcd60e51b815260040180806020018281038252604181526020018061513e6041913960600191505060405180910390fd5b60005b82518110156111dc5781818151811061117a57fe5b60200260200101516007600085848151811061119257fe5b6020908102919091018101516001600160a01b03168252810191909152604001600020805467ffffffffffffffff19166001600160401b0392909216919091179055600101611165565b507f10ff643ebeca3e33002e61b76fa85e7e10091e30afa39295f91af9838b3033b38282604051808060200180602001838103835285818151815260200191508051906020019060200280838360005b8381101561124457818101518382015260200161122c565b50505050905001838103825284818151815260200191508051906020019060200280838360005b8381101561128357818101518382015260200161126b565b5050505090500194505050505060405180910390a15050565b6006546001600160a01b031681565b6010546001600160a01b031681565b6005546001600160a01b031633146113035760405162461bcd60e51b815260040180806020018281038252603f815260200180615898603f913960400191505060405180910390fd5b600f8190556040805182815290517fd1c873cd16013f0dc5f37992c0d12794389698512895ec036a568e393b46e3c19181900360200190a150565b4690565b60007f8b73c3c69bb8fe3d512ecc4cf759cc79239f7b179b0ffacaa9a75d522b39400f7fbe287413178bfeddef8d9753ad4be825ae998706a6dabff23978b59dccaea0ad7fc89efdaa54c0f20c7adf612882df0950f5a951637e0307cdcb4c672f298b8bc66113af61133e565b3060405160200180868152602001858152602001848152602001838152602001826001600160a01b031681526020019550505050505060405160208183030381529060405280519060200120905090565b60008061140d8484612f0f565b90508061141e5760019150506114db565b6000611429826130ce565b9050806000191415611440576001925050506114db565b6000806000806000611464600460008881526020019081526020016000205461152d565b95509550955095509550506000611484864361312b90919063ffffffff16565b905060006114928286613174565b90506114a86114a182866131b6565b879061320f565b9550828611156114b6578295505b856114cd57600099505050505050505050506114db565b600199505050505050505050505b92915050565b600881815481106114ee57fe5b60009182526020909120600390910201805460018201546002909201546001600160a01b03909116925083565b600b6020526000908152604090205481565b6001600160601b0381169163ffffffff606083901c811692608081901c82169260a082901c83169260c083901c169160e01c90565b600954600160d01b900463ffffffff1681565b600054610100900460ff168061158e575061158e613269565b8061159c575060005460ff16155b6115d75760405162461bcd60e51b815260040180806020018281038252602e81526020018061554e602e913960400191505060405180910390fd5b600054610100900460ff16158015611602576000805460ff1961ff0019909116610100171660011790555b6001600160a01b038b161580159061162257506001600160a01b03821615155b61165d5760405162461bcd60e51b815260040180806020018281038252602c81526020018061542f602c913960400191505060405180910390fd5b6116678e8e61326f565b8b600960006101000a8154816001600160a01b0302191690836001600160a01b031602179055508a601060006101000a8154816001600160a01b0302191690836001600160a01b0316021790555089601360006101000a8154816001600160a01b0302191690836001600160a01b0316021790555088601260106101000a81548160ff021916908360ff16021790555087600f8190555060ff600960146101000a81548165ffffffffffff021916908365ffffffffffff16021790555060016012600c6101000a81548163ffffffff021916908363ffffffff160217905550600d60009080600181540180825580915050600190039060005260206000200160009091909190916101000a8154816001600160a01b0302191690836001600160a01b0316021790555061179b878787613340565b6117a6848484613436565b6040805160ff8b168152602081018a90526001600160401b0385168183015290517fc5272ad4c8d9f2e9af2f9555c11ead049be22b6e45c16975adc82371b7cd10409181900360600190a18015611803576000805461ff00191690555b5050505050505050505050505050565b6000836001600160a01b03166318160ddd6040518163ffffffff1660e01b815260040160206040518083038186803b15801561184e57600080fd5b505afa158015611862573d6000803e3d6000fd5b505050506040513d602081101561187857600080fd5b5051116118b65760405162461bcd60e51b81526004018080602001828103825260238152602001806158756023913960400191505060405180910390fd5b600d54600160201b81106118fb5760405162461bcd60e51b815260040180806020018281038252602181526020018061540e6021913960400191505060405180910390fd5b6001600160a01b0384166119405760405162461bcd60e51b81526004018080602001828103825260238152602001806153c16023913960400191505060405180910390fd5b6001600160a01b0384166000908152600e6020526040902054156119ab576040805162461bcd60e51b815260206004820152601f60248201527f4865726d657a3a3a616464546f6b656e3a20414c52454144595f414444454400604482015290519081900360640190fd5b6005546001600160a01b03163314611a015781156119de57601354600f546119de916001600160a01b031690858561352b565b601354600554600f54611a01926001600160a01b039081169233929116906137f4565b600d8054600181019091557fd7b6990105719101dabeb77144f2a3385c8033acd3af97e9423a695e81ad1eb50180546001600160a01b0319166001600160a01b0386169081179091556000818152600e6020908152604091829020849055815163ffffffff8516815291517fcb73d161edb7cd4fb1d92fedfd2555384fd997fd44ab507656f8c81e15747dde9281900390910190a250505050565b6013546001600160a01b031681565b60085490565b6012546001600160401b031681565b6009546001600160a01b031681565b60f081565b8015611b4657611b0b600d8663ffffffff1681548110611af057fe5b6000918252602090912001546001600160a01b031685613951565b611b465760405162461bcd60e51b81526004018080602001828103825260438152602001806156526043913960600191505060405180910390fd5b63ffffffff83166000908152600c6020908152604080832065ffffffffffff8616845290915290205460ff1615611bae5760405162461bcd60e51b815260040180806020018281038252602e8152602001806155fa602e913960400191505060405180910390fd5b63ffffffff83166000908152600b602090815260408083205481518084018290523360601b818401526001600160e01b031960e08b901b16605482015267ffffffffffffffff1989841b1660588201526001600160d01b031960d088901b1660708201528251605681830301815260769091019283905280519194937f30644e72e131a029b85045b68181585d2833e84879b9709143e1f593f00000019360029390918291908401908083835b60208310611c7a5780518252601f199092019160209182019101611c5b565b51815160209384036101000a60001901801990921691161790526040519190930194509192505080830381855afa158015611cb9573d6000803e3d6000fd5b5050506040513d6020811015611cce57600080fd5b505181611cd757fe5b600954604080516020810182529390920680845282516343753b4d60e01b81529094506001600160a01b03909116926343753b4d928e928e928e929091600401908190869080828437600083820152601f01601f1916909101905084608080828437600083820152601f01601f1916909101905083604080828437600081840152601f19601f82011690508083019250505082600160200280838360005b83811015611d8d578181015183820152602001611d75565b5050505090500194505050505060206040518083038186803b158015611db257600080fd5b505afa158015611dc6573d6000803e3d6000fd5b505050506040513d6020811015611ddc57600080fd5b50511515600114611e1e5760405162461bcd60e51b81526004018080602001828103825260298152602001806157236029913960400191505060405180910390fd5b63ffffffff85166000908152600c6020908152604080832065ffffffffffff881684529091529020805460ff19166001179055611e5c868885613ab8565b8215158563ffffffff168565ffffffffffff167f69177d798b38e27bcc4e0338307e4f1490e12d1006729d0e6e9cc82a8732f41560405160405180910390a450505050505050505050565b600a6020526000908152604090205481565b7fc89efdaa54c0f20c7adf612882df0950f5a951637e0307cdcb4c672f298b8bc681565b600d8181548110611eea57fe5b6000918252602090912001546001600160a01b0316905081565b600d5490565b601254600160801b900460ff1681565b600554600160a01b90046001600160401b031681565b6005546001600160a01b03163314611f795760405162461bcd60e51b815260040180806020018281038252603f815260200180615898603f913960400191505060405180910390fd5b6001600381905550611f996001600160601b036000806001600080612af6565b6000808052600460208190527f17ef568e3e12ab5b9c7254a8d58478811de00f9e6eb34345acd53bf8fd09d3ec9290925560065460055460408051630e670af560e01b8152600160a01b9092046001600160401b03169482019490945292516001600160a01b0390911692630e670af592602480830193919282900301818387803b15801561202757600080fd5b505af115801561203b573d6000803e3d6000fd5b50506040517f0410e6ef2bd89ecf5b2dc2f62157f9863e09e89cb7c7f1abb7d4ec43a6019d1e925060009150a1565b6005546001600160a01b031633146120b35760405162461bcd60e51b815260040180806020018281038252603f815260200180615898603f913960400191505060405180910390fd5b805160058111156120f55760405162461bcd60e51b81526004018080602001828103825260408152602001806152d46040913960400191505060405180910390fd5b600381905560005b818110156121e057600080600080600061212988878151811061211c57fe5b602002602001015161152d565b9550955095509550509450808411156121735760405162461bcd60e51b815260040180806020018281038252605d8152602001806158d7605d913960600191505060405180910390fd5b600083116121b25760405162461bcd60e51b81526004018080602001828103825260508152602001806158256050913960600191505060405180910390fd5b6121c0854386868686612af6565b6000878152600460205260409020555050600190930192506120fd915050565b507fd4904145d7eae889c5493798579680417459783db0fa67398bea50e56859075f826040518080602001828103825283818151815260200191508051906020019060200280838360005b8381101561224357818101518382015260200161222b565b505050509050019250505060405180910390a15050565b3332146122985760405162461bcd60e51b815260040180806020018281038252602a8152602001806153e4602a913960400191505060405180910390fd5b6010546040805163041d8fb560e51b815233600482015243602482015290516001600160a01b03909216916383b1f6a091604480820192602092909190829003018186803b1580156122e957600080fd5b505afa1580156122fd573d6000803e3d6000fd5b505050506040513d602081101561231357600080fd5b505115156001146123555760405162461bcd60e51b81526004018080602001828103825260228152602001806153146022913960400191505060405180910390fd5b836123b157601254600160801b810460ff166001600160401b03918216011643106123b15760405162461bcd60e51b81526004018080602001828103825260268152602001806157a36026913960400191505060405180910390fd5b60006123c08d8d8d888a613c52565b905060088660ff16815481106123d257fe5b60009182526020918290206003909102015460408051928301815283835280516343753b4d60e01b81526001600160a01b03909216926343753b4d9288928892889290916004909101908190869080828437600083820152601f01601f1916909101905084608080828437600083820152601f01601f1916909101905083604080828437600081840152601f19601f82011690508083019250505082600160200280838360005b83811015612491578181015183820152602001612479565b5050505090500194505050505060206040518083038186803b1580156124b657600080fd5b505afa1580156124ca573d6000803e3d6000fd5b505050506040513d60208110156124e057600080fd5b505161251d5760405162461bcd60e51b81526004018080602001828103825260218152602001806151bb6021913960400191505060405180910390fd5b6009601a81819054906101000a900463ffffffff168092919060010191906101000a81548163ffffffff021916908363ffffffff160217905550508c600960146101000a81548165ffffffffffff021916908365ffffffffffff1602179055508b600a60006009601a9054906101000a900463ffffffff1663ffffffff1663ffffffff168152602001908152602001600020819055508a600b60006009601a9054906101000a900463ffffffff1663ffffffff1663ffffffff1681526020019081526020016000208190555060008515612618576012805467ffffffffffffffff1916436001600160401b0316179055612615613e6b565b90505b601054604080516309cb4a2f60e31b815233600482015290516001600160a01b0390921691634e5a51789160248082019260009290919082900301818387803b15801561266457600080fd5b505af1158015612678573d6000803e3d6000fd5b50506009546040805161ffff861681529051600160d01b90920463ffffffff1693507fe00040c8a3b0bf905636c26924e90520eafc5003324138236fddee2d3458861892506020908290030190a25050505050505050505050505050565b600f5481565b7f8b73c3c69bb8fe3d512ecc4cf759cc79239f7b179b0ffacaa9a75d522b39400f81565b600d5463ffffffff8516106127465760405162461bcd60e51b815260040180806020018281038252602e8152602001806157c9602e913960400191505060405180910390fd5b600061275187613f28565b9050600160801b81106127955760405162461bcd60e51b81526004018080602001828103825260318152602001806151dc6031913960400191505060405180910390fd5b80156129fc5763ffffffff85166127e9573481146127e45760405162461bcd60e51b8152600401808060200182810382526037815260200180615a296037913960400191505060405180910390fd5b6129fc565b34156128265760405162461bcd60e51b815260040180806020018281038252602f8152602001806154d8602f913960400191505060405180910390fd5b811561285f5761285f600d8663ffffffff168154811061284257fe5b6000918252602090912001546001600160a01b031682858561352b565b6000600d8663ffffffff168154811061287457fe5b60009182526020918290200154604080516370a0823160e01b815230600482015290516001600160a01b03909216926370a0823192602480840193829003018186803b1580156128c357600080fd5b505afa1580156128d7573d6000803e3d6000fd5b505050506040513d60208110156128ed57600080fd5b5051600d80549192506129279163ffffffff891690811061290a57fe5b6000918252602090912001546001600160a01b03163330856137f4565b6000600d8763ffffffff168154811061293c57fe5b60009182526020918290200154604080516370a0823160e01b815230600482015290516001600160a01b03909216926370a0823192602480840193829003018186803b15801561298b57600080fd5b505afa15801561299f573d6000803e3d6000fd5b505050506040513d60208110156129b557600080fd5b5051905081810383146129f95760405162461bcd60e51b815260040180806020018281038252603981526020018061595e6039913960400191505060405180910390fd5b50505b612a0b338a8a8a8a8a8a613f40565b505050505050505050565b6005546001600160a01b03163314612a5f5760405162461bcd60e51b815260040180806020018281038252603f815260200180615898603f913960400191505060405180910390fd5b60f060ff82161115612aa25760405162461bcd60e51b815260040180806020018281038252603c81526020018061517f603c913960400191505060405180910390fd5b6012805460ff8316600160801b810260ff60801b199092169190911790915560408051918252517fff6221781ac525b04585dbb55cd2ebd2a92c828ca3e42b23813a1137ac9744319181900360200190a150565b600060e082901b60c084901b60a086901b608088901b60608a901b8b171717171790509695505050505050565b601254600160401b900463ffffffff1681565b600954600160a01b900465ffffffffffff1681565b8015612bbd57612b82600d8863ffffffff1681548110612b6757fe5b6000918252602090912001546001600160a01b031687613951565b612bbd5760405162461bcd60e51b81526004018080602001828103825260478152602001806155076047913960600191505060405180910390fd5b612bc5614fe0565b612bdc886000896001600160c01b0316893361419d565b90506000612be9826141ff565b63ffffffff87166000908152600b6020908152604080832054600c835281842065ffffffffffff8a168552909252909120549192509060ff1615612c5e5760405162461bcd60e51b81526004018080602001828103825260328152602001806155a76032913960400191505060405180910390fd5b612c7281878765ffffffffffff168561429c565b1515600114612cb25760405162461bcd60e51b815260040180806020018281038252602e8152602001806157f7602e913960400191505060405180910390fd5b63ffffffff87166000908152600c6020908152604080832065ffffffffffff891684529091529020805460ff19166001179055612cf0898b86613ab8565b8315158763ffffffff168665ffffffffffff167f69177d798b38e27bcc4e0338307e4f1490e12d1006729d0e6e9cc82a8732f41560405160405180910390a450505050505050505050565b60116020908152600091825260409182902080548351601f600260001961010060018616150201909316929092049182018490048402810184019094528084529091830182828015612dce5780601f10612da357610100808354040283529160200191612dce565b820191906000526020600020905b815481529060010190602001808311612db157829003601f168201915b505050505081565b7fafd642c6a37a2e6887dc4ad5142f84197828a904e53d3204ecb1100329231eaa81565b6005546001600160a01b03163314612e435760405162461bcd60e51b815260040180806020018281038252603f815260200180615898603f913960400191505060405180910390fd5b62127500816001600160401b03161115612e8e5760405162461bcd60e51b815260040180806020018281038252604a815260200180615336604a913960600191505060405180910390fd5b600580546001600160401b038316600160a01b810267ffffffffffffffff60a01b199092169190911790915560408051918252517f9db302c4547a21fb20a3a794e5f63ee87eb6e4afc3325ebdadba2d1fb4a907379181900360200190a150565b600c60209081526000928352604080842090915290825290205460ff1681565b6001600160a01b0382166000908152600760205260408120546001600160401b0316612f3d575060006114db565b6001600160a01b0383166000818152600760205260408120546402540be4006001600160401b039091166001600160c01b038616020491612f8057506012613073565b60408051600481526024810182526020810180516001600160e01b031663313ce56760e01b178152915181516000936060936001600160a01b038b16939092909182918083835b60208310612fe65780518252601f199092019160209182019101612fc7565b6001836020036101000a038019825116818451168082178552505050505050905001915050600060405180830381855afa9150503d8060008114613046576040519150601f19603f3d011682016040523d82523d6000602084013e61304b565b606091505b509150915081156130705780806020019051602081101561306b57600080fd5b505192505b50505b604d8160ff16106130b55760405162461bcd60e51b815260040180806020018281038252603b8152602001806150c3603b913960400191505060405180910390fd5b8060ff16600a0a82816130c457fe5b0495945050505050565b6000805b60035481121561311f576000818152600460205260409020546001600160601b031680841115806131095750806001600160601b03145b1561311657509050613126565b506001016130d2565b5060001990505b919050565b600061316d83836040518060400160405280601e81526020017f536166654d6174683a207375627472616374696f6e206f766572666c6f770000815250614323565b9392505050565b600061316d83836040518060400160405280601a81526020017f536166654d6174683a206469766973696f6e206279207a65726f0000000000008152506143ba565b6000826131c5575060006114db565b828202828482816131d257fe5b041461316d5760405162461bcd60e51b81526004018080602001828103825260218152602001806155d96021913960400191505060405180910390fd5b60008282018381101561316d576040805162461bcd60e51b815260206004820152601b60248201527f536166654d6174683a206164646974696f6e206f766572666c6f770000000000604482015290519081900360640190fd5b303b1590565b60005b825181101561333b576008604051806060016040528085848151811061329457fe5b60200260200101516001600160a01b031681526020016008808686815181106132b957fe5b6020026020010151901b901c815260200160f88585815181106132d857fe5b60209081029190910181015190911c909152825460018082018555600094855293829020835160039092020180546001600160a01b0319166001600160a01b03909216919091178155908201518184015560409091015160029091015501613272565b505050565b600054610100900460ff16806133595750613359613269565b80613367575060005460ff16155b6133a25760405162461bcd60e51b815260040180806020018281038252602e81526020018061554e602e913960400191505060405180910390fd5b600054610100900460ff161580156133cd576000805460ff1961ff0019909116610100171660011790555b600080546001600160a01b03808716620100000262010000600160b01b031990921691909117909155600180548583166001600160a01b03199182161790915560028054928516929091169190911790558015613430576000805461ff00191690555b50505050565b600054610100900460ff168061344f575061344f613269565b8061345d575060005460ff16155b6134985760405162461bcd60e51b815260040180806020018281038252602e81526020018061554e602e913960400191505060405180910390fd5b600054610100900460ff161580156134c3576000805460ff1961ff0019909116610100171660011790555b600580546001600160a01b03199081166001600160a01b038781169190911767ffffffffffffffff60a01b1916600160a01b6001600160401b0388160217909255600680549091169184169190911790558015613430576000805461ff001916905550505050565b60008282602081101561353d57600080fd5b50356001600160e01b031916905063d505accf60e01b81146135905760405162461bcd60e51b815260040180806020018281038252602e8152602001806159d2602e913960400191505060405180910390fd5b60008080808080806135a5896004818d61509a565b60e08110156135b357600080fd5b506001600160a01b038135811698506020820135169650604081013595506060810135945060ff608082013516935060a0810135925060c00135905033871461362d5760405162461bcd60e51b81526004018080602001828103825260308152602001806152416030913960400191505060405180910390fd5b6001600160a01b03861630146136745760405162461bcd60e51b81526004018080602001828103825260258152602001806154b36025913960400191505060405180910390fd5b8a85146136b25760405162461bcd60e51b815260040180806020018281038252602d815260200180615776602d913960400191505060405180910390fd5b8b6001600160a01b031663d505accf60e01b8888888888888860405160240180886001600160a01b03168152602001876001600160a01b031681526020018681526020018581526020018460ff168152602001838152602001828152602001975050505050505050604051602081830303815290604052906001600160e01b0319166020820180516001600160e01b0383818316178352505050506040518082805190602001908083835b6020831061377c5780518252601f19909201916020918201910161375d565b6001836020036101000a0380198251168184511680821785525050505050509050019150506000604051808303816000865af19150503d80600081146137de576040519150601f19603f3d011682016040523d82523d6000602084013e6137e3565b606091505b505050505050505050505050505050565b604080516001600160a01b0385811660248301528481166044830152606480830185905283518084039091018152608490920183526020820180516001600160e01b03166323b872dd60e01b17815292518251600094606094938a169392918291908083835b602083106138795780518252601f19909201916020918201910161385a565b6001836020036101000a0380198251168184511680821785525050505050509050019150506000604051808303816000865af19150503d80600081146138db576040519150601f19603f3d011682016040523d82523d6000602084013e6138e0565b606091505b509150915081801561390e57508051158061390e575080806020019051602081101561390b57600080fd5b50515b6139495760405162461bcd60e51b815260040180806020018281038252603481526020018061520d6034913960400191505060405180910390fd5b505050505050565b60008061395e8484612f0f565b90508061396f5760019150506114db565b600061397a826130ce565b9050806000191415613991576001925050506114db565b6000806000806000806139b6600460008981526020019081526020016000205461152d565b95509550955095509550955060006139d7864361312b90919063ffffffff16565b905060006139e58286613174565b90506139f46114a182866131b6565b9550828610613a0857829550439650613a1f565b613a1c613a1582876131b6565b889061320f565b96505b85613a375760009a50505050505050505050506114db565b613a4286600161312b565b9550613a52888888888888612af6565b600460008b815260200190815260200160002081905550868960ff167fa35fe9a9e21cdbbc4774aa8a56e7b97ea9c06afc09ffb06af593d26951e350aa886040518082815260200191505060405180910390a35060019c9b505050505050505050505050565b8015613afe57613af9600d8363ffffffff1681548110613ad457fe5b6000918252602090912001546001600160a01b0316336001600160c01b038616614415565b61333b565b63ffffffff8216613b8a576006546040805163cfc0b64160e01b81523360048201526000602482018190526001600160c01b0387166044830181905292516001600160a01b039094169363cfc0b6419392606480820193929182900301818588803b158015613b6c57600080fd5b505af1158015613b80573d6000803e3d6000fd5b505050505061333b565b6000600d8363ffffffff1681548110613b9f57fe5b6000918252602090912001546006546001600160a01b039182169250613bd1918391166001600160c01b038716614667565b6006546040805163cfc0b64160e01b81523360048201526001600160a01b0384811660248301526001600160c01b03881660448301529151919092169163cfc0b64191606480830192600092919082900301818387803b158015613c3457600080fd5b505af1158015613c48573d6000803e3d6000fd5b5050505050505050565b600954600160d01b810463ffffffff166000908152600a60205260408120546008805492939192600160a01b90920465ffffffffffff169184918291829190819060ff8a16908110613ca057fe5b90600052602060002090600302016002015481613cb957fe5b60408051929091048102808301614eb201909152614e728101825260d086811b60208401528d901b6026830152602c8201879052604c82018c9052606c82018b90529150608c8101613d0b818b6147b4565b614e0001613d1960046149eb565b909550935082841115613d5d5760405162461bcd60e51b81526004018080602001828103825260408152602001806150fe6040913960400191505060405180910390fd5b838582378301613d6f818585036149ff565b838303810190504660f01b815260028101905060006009601a9054906101000a900463ffffffff1660010163ffffffff1690508060e01b82527f30644e72e131a029b85045b68181585d2833e84879b9709143e1f593f00000016002846040518082805190602001908083835b60208310613dfb5780518252601f199092019160209182019101613ddc565b51815160209384036101000a60001901801990921691161790526040519190930194509192505080830381855afa158015613e3a573d6000803e3d6000fd5b5050506040513d6020811015613e4f57600080fd5b505181613e5857fe5b069e9d5050505050505050505050505050565b601254600160401b900463ffffffff1660009081526011602052604081208054604e600261010060018416150260001901909216919091040490613eaf9083614ffe565b60128054600163ffffffff600160401b808404821692909201811682026bffffffff000000000000000019909316929092179283905582048116600160601b909204161415613f235760128054600163ffffffff600160601b808404821692909201160263ffffffff60601b199091161790555b905090565b6407ffffffff811660239190911c601f16600a0a0290565b6000613f4b84613f28565b9050600160c01b8110613f8f5760405162461bcd60e51b815260040180806020018281038252602e81526020018061545b602e913960400191505060405180910390fd5b65ffffffffffff8216613fde578015613fd95760405162461bcd60e51b815260040180806020018281038252603b815260200180615997603b913960400191505060405180910390fd5b61409b565b65ffffffffffff8216600114156140335764ffffffffff851615613fd95760405162461bcd60e51b81526004018080602001828103825260378152602001806152716037913960400191505060405180910390fd5b60ff65ffffffffffff8316118015614060575060095465ffffffffffff600160a01b909104811690831611155b61409b5760405162461bcd60e51b81526004018080602001828103825260288152602001806156fb6028913960400191505060405180910390fd5b65ffffffffffff86166140e957866140e45760405162461bcd60e51b81526004018080602001828103825260418152602001806153806041913960600191505060405180910390fd5b61418e565b60ff65ffffffffffff8716118015614116575060095465ffffffffffff600160a01b909104811690871611155b6141515760405162461bcd60e51b815260040180806020018281038252602a815260200180615489602a913960400191505060405180910390fd5b861561418e5760405162461bcd60e51b81526004018080602001828103825260428152602001806156956042913960600191505060405180910390fd5b613c4888888888888888614a18565b6141a5614fe0565b6141ad614fe0565b63ffffffff96909616602095861b65ffff000000001617690100000000000000000060b785901c1617865250928401919091526001600160ff1b031660408301526001600160a01b0316606082015290565b60025460405163248f667760e01b81526000916001600160a01b03169063248f6677908490600401808260808083838a5b83811015614248578181015183820152602001614230565b5050505090500191505060206040518083038186803b15801561426a57600080fd5b505afa15801561427e573d6000803e3d6000fd5b505050506040513d602081101561429457600080fd5b505192915050565b6000806142a98484614bd0565b8551909150600090600019015b60008112614316578681815181106142ca57fe5b602002602001015191506000818760008212156142e357fe5b6001911c811614905080614300576142fb8484614bfc565b61430a565b61430a8385614bfc565b935050600019016142b6565b5050909414949350505050565b600081848411156143b25760405162461bcd60e51b81526004018080602001828103825283818151815260200191508051906020019080838360005b8381101561437757818101518382015260200161435f565b50505050905090810190601f1680156143a45780820380516001836020036101000a031916815260200191505b509250505060405180910390fd5b505050900390565b600081836144095760405162461bcd60e51b815260206004820181815283516024840152835190928392604490910191908501908083836000831561437757818101518382015260200161435f565b5060008385816130c457fe5b6001600160a01b0383166145135760408051600080825260208201909252339083906040518082805190602001908083835b602083106144665780518252601f199092019160209182019101614447565b6001836020036101000a03801982511681845116808217855250505050505090500191505060006040518083038185875af1925050503d80600081146144c8576040519150601f19603f3d011682016040523d82523d6000602084013e6144cd565b606091505b505090508061450d5760405162461bcd60e51b815260040180806020018281038252602a81526020018061574c602a913960400191505060405180910390fd5b5061333b565b604080516001600160a01b038481166024830152604480830185905283518084039091018152606490920183526020820180516001600160e01b031663a9059cbb60e01b178152925182516000946060949389169392918291908083835b602083106145905780518252601f199092019160209182019101614571565b6001836020036101000a0380198251168184511680821785525050505050509050019150506000604051808303816000865af19150503d80600081146145f2576040519150601f19603f3d011682016040523d82523d6000602084013e6145f7565b606091505b5091509150818015614625575080511580614625575080806020019051602081101561462257600080fd5b50515b6146605760405162461bcd60e51b815260040180806020018281038252602c8152602001806152a8602c913960400191505060405180910390fd5b5050505050565b604080516001600160a01b038481166024830152604480830185905283518084039091018152606490920183526020820180516001600160e01b031663095ea7b360e01b178152925182516000946060949389169392918291908083835b602083106146e45780518252601f1990920191602091820191016146c5565b6001836020036101000a0380198251168184511680821785525050505050509050019150506000604051808303816000865af19150503d8060008114614746576040519150601f19603f3d011682016040523d82523d6000602084013e61474b565b606091505b5091509150818015614779575080511580614779575080806020019051602081101561477657600080fd5b50515b6146605760405162461bcd60e51b815260040180806020018281038252602a815260200180615934602a913960400191505060405180910390fd5b6000806147c160036149eb565b90925090506065810460006060851561489157601254600160401b900463ffffffff166000908152601160209081526040918290208054835160026101006001841615026000190190921691909104601f81018490048402820184019094528381529290918301828280156148775780601f1061484c57610100808354040283529160200191614877565b820191906000526020600020905b81548152906001019060200180831161485a57829003601f168201915b50505050509050604e81518161488957fe5b049150614896565b600091505b61010083830111156148d95760405162461bcd60e51b81526004018080602001828103825260248152602001806156d76024913960400191505060405180910390fd5b811561490757604e820287019660208201905b888110156149045781518152602091820191016148ec565b50505b60005b838110156149ce57600d546065870196803560001a916001820135916021810135916041820135916061013560e01c9081106149775760405162461bcd60e51b815260040180806020018281038252602a815260200180615628602a913960400191505060405180910390fd5b6001600160a01b0360ff8616156149975761499483858789614c19565b90505b60601b8d5260148d0191909152600060348d0181905260e09190911b60448d015260488c01525050604e909801975060010161490a565b506149e287604e85856101000303026149ff565b50505050505050565b602002600490810135602481019291013590565b808201915b8281101561333b5760008152602001614a04565b604080516bffffffffffffffffffffffff1960608a901b16602080830191909152603482018990526001600160d01b031960d089811b821660548501526001600160d81b031960d88a811b8216605a87015289901b16605f8501526001600160e01b031960e088901b16606485015285901b1660688301528251604e81840381018252606e9093018452601254600160601b900463ffffffff16600090815260119092529290208054600260001960018316156101000201909116049190910490614ae39083614e12565b601254604080516020808252855181830152855160ff861694600160601b900463ffffffff16937fdd5c7c5ea02d3c5d1621513faa6de53d474ee6f111eda6352a63e3dfe8c401199388939092839283019185019080838360005b83811015614b56578181015183820152602001614b3e565b50505050905090810190601f168015614b835780820380516001836020036101000a031916815260200191505b509250505060405180910390a360808160010110612a0b5760128054600163ffffffff600160601b808404821692909201160263ffffffff60601b19909116179055505050505050505050565b6000614bda615045565b8381526020810183905260016040820152614bf481614f5c565b949350505050565b6000614c06615063565b83815260208101839052614bf481614f99565b60007f7fffffffffffffffffffffffffffffff5d576e7357a4501ddfe92f46681b20a0831115614c7a5760405162461bcd60e51b8152600401808060200182810382526029815260200180615a006029913960400191505060405180910390fd5b604080517fafd642c6a37a2e6887dc4ad5142f84197828a904e53d3204ecb1100329231eaa6020808301919091527fbe287413178bfeddef8d9753ad4be825ae998706a6dabff23978b59dccaea0ad828401527fff946cf82975b1a2b6e6d28c9a76a4b8d7a1fd0592b785cb92771933310f9ee7606083015260808083018990528351808403909101815260a090920190925280519101206000614d1c611342565b82604051602001808061190160f01b81525060020183815260200182815260200192505050604051602081830303815290604052805190602001209050600060018286898960405160008152602001604052604051808581526020018460ff1681526020018381526020018281526020019450505050506020604051602081039080840390855afa158015614db5573d6000803e3d6000fd5b5050604051601f1901519150506001600160a01b038116614e075760405162461bcd60e51b815260040180806020018281038252602b81526020018061557c602b913960400191505060405180910390fd5b979650505050505050565b815460026001808316156101000203821604825180820160208110602084100160028114614ebc5760018114614ee1578660005260208404602060002001600160028402018855602085068060200390508088018589016001836101000a0392508282511684540184556001840193506020820191505b80821015614ea65781518455600184019350602082019150614e89565b815191036101000a9081900402909155506149e2565b60028302826020036101000a846020036101000a6020890151040201850187556149e2565b8660005260208404602060002001600160028402018855846020038088018589016001836101000a0392508282511660ff198a160184556020820191506001840193505b80821015614f425781518455600184019350602082019150614f25565b815191036101000a90819004029091555050505050505050565b6001546040516304b98e1d60e31b8152825160049091019081526000916001600160a01b0316906325cc70e8908490808260608083836020614230565b60008054604080516314d2f97b60e11b8152620100009092046001600160a01b0316916329a5f2f691859160040190819083908083838a8181015183820152602001614230565b60405180608001604052806004906020820280368337509192915050565b50805460018160011615610100020316600290046000825580601f106150245750615042565b601f0160209004906000526020600020908101906150429190615081565b50565b60405180606001604052806003906020820280368337509192915050565b60405180604001604052806002906020820280368337509192915050565b5b808211156150965760008155600101615082565b5090565b600080858511156150a9578182fd5b838611156150b5578182fd5b505082019391909203915056fe496e7374616e7457697468647261774d616e616765723a3a5f746f6b656e325553443a20544f4b454e5f444543494d414c535f4f564552464c4f574865726d657a3a3a5f636f6e73747275637443697263756974496e7075743a20494e56414c49445f464545494458434f4f5244494e41544f525f4c454e475448496e7374616e7457697468647261774d616e616765723a3a757064617465546f6b656e45786368616e67653a20494e56414c49445f41525241595f4c454e4754484865726d657a3a3a757064617465466f7267654c314c32426174636854696d656f75743a204d41585f464f52474554494d454f55545f4558434545444865726d657a3a3a666f72676542617463683a20494e56414c49445f50524f4f464865726d657a3a3a6164644c315472616e73616374696f6e3a204c4f4144414d4f554e545f4558434545445f4c494d49544865726d657a3a3a5f736166655472616e7366657246726f6d3a2045524332305f5452414e5346455246524f4d5f4641494c45444865726d657a3a3a5f7065726d69743a205045524d49545f4f574e45525f4d5553545f42455f5448455f53454e4445524865726d657a3a3a5f6164644c315472616e73616374696f6e3a204c4f4144414d4f554e545f4d5553545f42455f305f49465f455849544865726d657a3a3a5f736166655472616e736665723a2045524332305f5452414e534645525f4641494c4544496e7374616e7457697468647261774d616e616765723a3a7570646174654275636b657473506172616d65746572733a204d41585f4e554d5f4255434b4554534865726d657a3a3a666f72676542617463683a2041554354494f4e5f44454e494544496e7374616e7457697468647261774d616e616765723a3a7570646174655769746864726177616c44656c61793a204558434545445f4d41585f5749544844524157414c5f44454c41594865726d657a3a3a5f6164644c315472616e73616374696f6e3a20494e56414c49445f4352454154455f4143434f554e545f574954485f4e4f5f424142594a55424865726d657a3a3a616464546f6b656e3a20414444524553535f305f494e56414c49444865726d657a3a3a666f72676542617463683a20494e54454e414c5f54585f4e4f545f414c4c4f5745444865726d657a3a3a616464546f6b656e3a20544f4b454e5f4c4953545f46554c4c4865726d657a3a3a696e697469616c697a654865726d657a20414444524553535f305f4e4f545f56414c49444865726d657a3a3a5f6164644c315472616e73616374696f6e3a20414d4f554e545f4558434545445f4c494d49544865726d657a3a3a5f6164644c315472616e73616374696f6e3a20494e56414c49445f46524f4d4944584865726d657a3a3a5f7065726d69743a205350454e4445525f4d5553545f42455f544849534865726d657a3a3a6164644c315472616e73616374696f6e3a204d53475f56414c55455f4e4f545f455155414c5f304865726d657a3a3a77697468647261774d65726b6c6550726f6f663a20494e5354414e545f57495448445241575f5741535445445f464f525f544849535f5553445f52414e4745496e697469616c697a61626c653a20636f6e747261637420697320616c726561647920696e697469616c697a65644865726d657a48656c706572733a3a5f636865636b5369673a20494e56414c49445f5349474e41545552454865726d657a3a3a77697468647261774d65726b6c6550726f6f663a2057495448445241575f414c52454144595f444f4e45536166654d6174683a206d756c7469706c69636174696f6e206f766572666c6f774865726d657a3a3a7769746864726177436972637569743a2057495448445241575f414c52454144595f444f4e454865726d657a3a3a5f6275696c644c31446174613a20544f4b454e5f4e4f545f524547495354455245444865726d657a3a3a7769746864726177436972637569743a20494e5354414e545f57495448445241575f5741535445445f464f525f544849535f5553445f52414e47454865726d657a3a3a5f6164644c315472616e73616374696f6e3a20424142594a55425f4d5553545f42455f305f49465f4e4f545f4352454154455f4143434f554e544865726d657a3a3a5f6275696c644c31446174613a204c315f54585f4f564552464c4f574865726d657a3a3a5f6164644c315472616e73616374696f6e3a20494e56414c49445f544f4944584865726d657a3a3a7769746864726177436972637569743a20494e56414c49445f5a4b5f50524f4f464865726d657a3a3a5f736166655472616e736665723a204554485f5452414e534645525f4641494c45444865726d657a3a3a5f7065726d69743a205045524d49545f414d4f554e545f444f45535f4e4f545f4d415443484865726d657a3a3a666f72676542617463683a204c314c3242415443485f52455155495245444865726d657a3a3a6164644c315472616e73616374696f6e3a20544f4b454e5f4e4f545f524547495354455245444865726d657a3a3a77697468647261774d65726b6c6550726f6f663a20534d545f50524f4f465f494e56414c4944496e7374616e7457697468647261774d616e616765723a3a7570646174654275636b657473506172616d65746572733a20524154455f424c4f434b535f4d5553545f42455f4d4f52455f5448414e5f304865726d657a3a3a616464546f6b656e3a20544f54414c5f535550504c595f5a45524f496e7374616e7457697468647261774d616e616765723a3a6f6e6c79476f7665726e616e63653a204f4e4c595f474f5645524e414e43455f41444452455353496e7374616e7457697468647261774d616e616765723a3a7570646174654275636b657473506172616d65746572733a205749544844524157414c535f4d5553545f42455f4c4553535f5448414e5f4d41585749544844524157414c534865726d657a3a3a5f73616665417070726f76653a2045524332305f415050524f56455f4641494c45444865726d657a3a3a6164644c315472616e73616374696f6e3a204c4f4144414d4f554e545f45524332305f444f45535f4e4f545f4d415443484865726d657a3a3a5f6164644c315472616e73616374696f6e3a20414d4f554e545f4d5553545f42455f305f49465f4e4f545f5452414e534645524865726d657a41756374696f6e50726f746f636f6c3a3a5f7065726d69743a204e4f545f56414c49445f43414c4c4865726d657a48656c706572733a3a5f636865636b5369673a20494e56414c49445f535f56414c55454865726d657a3a3a6164644c315472616e73616374696f6e3a204c4f4144414d4f554e545f4554485f444f45535f4e4f545f4d41544348a2646970667358221220181adf48eb65cc70019a4e1d45b5c9bdb71281e8a8e2ad943439e3208809d47a64736f6c634300060c0033",
  "linkReferences": {},
  "deployedLinkReferences": {}
}