{
  "_format": "hh-sol-artifact-1",
  "contractName": "WithdrawalDelayer",
  "sourceName": "contracts/withdrawalDelayer/WithdrawalDelayer.sol",
  "abi": [
    {
      "inputs": [
        {
          "internalType": "uint64",
          "name": "_initialWithdrawalDelay",
          "type": "uint64"
        },
        {
          "internalType": "address",
          "name": "_initialHermezRollup",
          "type": "address"
        },
        {
          "internalType": "address",
          "name": "_initialHermezGovernanceAddress",
          "type": "address"
        },
        {
          "internalType": "address payable",
          "name": "_initialEmergencyCouncil",
          "type": "address"
        }
      ],
      "stateMutability": "nonpayable",
      "type": "constructor"
    },
    {
      "anonymous": false,
      "inputs": [
        {
          "indexed": true,
          "internalType": "address",
          "name": "owner",
          "type": "address"
        },
        {
          "indexed": true,
          "internalType": "address",
          "name": "token",
          "type": "address"
        },
        {
          "indexed": false,
          "internalType": "uint192",
          "name": "amount",
          "type": "uint192"
        },
        {
          "indexed": false,
          "internalType": "uint64",
          "name": "depositTimestamp",
          "type": "uint64"
        }
      ],
      "name": "Deposit",
      "type": "event"
    },
    {
      "anonymous": false,
      "inputs": [],
      "name": "EmergencyModeEnabled",
      "type": "event"
    },
    {
      "anonymous": false,
      "inputs": [
        {
          "indexed": true,
          "internalType": "address",
          "name": "who",
          "type": "address"
        },
        {
          "indexed": true,
          "internalType": "address",
          "name": "to",
          "type": "address"
        },
        {
          "indexed": true,
          "internalType": "address",
          "name": "token",
          "type": "address"
        },
        {
          "indexed": false,
          "internalType": "uint256",
          "name": "amount",
          "type": "uint256"
        }
      ],
      "name": "EscapeHatchWithdrawal",
      "type": "event"
    },
    {
      "anonymous": false,
      "inputs": [
        {
          "indexed": false,
          "internalType": "uint64",
          "name": "initialWithdrawalDelay",
          "type": "uint64"
        },
        {
          "indexed": false,
          "internalType": "address",
          "name": "initialHermezGovernanceAddress",
          "type": "address"
        },
        {
          "indexed": false,
          "internalType": "address",
          "name": "initialEmergencyCouncil",
          "type": "address"
        }
      ],
      "name": "InitializeWithdrawalDelayerEvent",
      "type": "event"
    },
    {
      "anonymous": false,
      "inputs": [
        {
          "indexed": false,
          "internalType": "address",
          "name": "newEmergencyCouncil",
          "type": "address"
        }
      ],
      "name": "NewEmergencyCouncil",
      "type": "event"
    },
    {
      "anonymous": false,
      "inputs": [
        {
          "indexed": false,
          "internalType": "address",
          "name": "newHermezGovernanceAddress",
          "type": "address"
        }
      ],
      "name": "NewHermezGovernanceAddress",
      "type": "event"
    },
    {
      "anonymous": false,
      "inputs": [
        {
          "indexed": false,
          "internalType": "uint64",
          "name": "withdrawalDelay",
          "type": "uint64"
        }
      ],
      "name": "NewWithdrawalDelay",
      "type": "event"
    },
    {
      "anonymous": false,
      "inputs": [
        {
          "indexed": true,
          "internalType": "address",
          "name": "token",
          "type": "address"
        },
        {
          "indexed": true,
          "internalType": "address",
          "name": "owner",
          "type": "address"
        },
        {
          "indexed": false,
          "internalType": "uint192",
          "name": "amount",
          "type": "uint192"
        }
      ],
      "name": "Withdraw",
      "type": "event"
    },
    {
      "inputs": [],
      "name": "MAX_EMERGENCY_MODE_TIME",
      "outputs": [
        {
          "internalType": "uint64",
          "name": "",
          "type": "uint64"
        }
      ],
      "stateMutability": "view",
      "type": "function"
    },
    {
      "inputs": [],
      "name": "MAX_WITHDRAWAL_DELAY",
      "outputs": [
        {
          "internalType": "uint64",
          "name": "",
          "type": "uint64"
        }
      ],
      "stateMutability": "view",
      "type": "function"
    },
    {
      "inputs": [
        {
          "internalType": "uint64",
          "name": "_newWithdrawalDelay",
          "type": "uint64"
        }
      ],
      "name": "changeWithdrawalDelay",
      "outputs": [],
      "stateMutability": "nonpayable",
      "type": "function"
    },
    {
      "inputs": [],
      "name": "claimEmergencyCouncil",
      "outputs": [],
      "stateMutability": "nonpayable",
      "type": "function"
    },
    {
      "inputs": [],
      "name": "claimGovernance",
      "outputs": [],
      "stateMutability": "nonpayable",
      "type": "function"
    },
    {
      "inputs": [
        {
          "internalType": "address",
          "name": "_owner",
          "type": "address"
        },
        {
          "internalType": "address",
          "name": "_token",
          "type": "address"
        },
        {
          "internalType": "uint192",
          "name": "_amount",
          "type": "uint192"
        }
      ],
      "name": "deposit",
      "outputs": [],
      "stateMutability": "payable",
      "type": "function"
    },
    {
      "inputs": [
        {
          "internalType": "address payable",
          "name": "_owner",
          "type": "address"
        },
        {
          "internalType": "address",
          "name": "_token",
          "type": "address"
        }
      ],
      "name": "depositInfo",
      "outputs": [
        {
          "internalType": "uint192",
          "name": "",
          "type": "uint192"
        },
        {
          "internalType": "uint64",
          "name": "",
          "type": "uint64"
        }
      ],
      "stateMutability": "view",
      "type": "function"
    },
    {
      "inputs": [
        {
          "internalType": "bytes32",
          "name": "",
          "type": "bytes32"
        }
      ],
      "name": "deposits",
      "outputs": [
        {
          "internalType": "uint192",
          "name": "amount",
          "type": "uint192"
        },
        {
          "internalType": "uint64",
          "name": "depositTimestamp",
          "type": "uint64"
        }
      ],
      "stateMutability": "view",
      "type": "function"
    },
    {
      "inputs": [],
      "name": "enableEmergencyMode",
      "outputs": [],
      "stateMutability": "nonpayable",
      "type": "function"
    },
    {
      "inputs": [
        {
          "internalType": "address",
          "name": "_to",
          "type": "address"
        },
        {
          "internalType": "address",
          "name": "_token",
          "type": "address"
        },
        {
          "internalType": "uint256",
          "name": "_amount",
          "type": "uint256"
        }
      ],
      "name": "escapeHatchWithdrawal",
      "outputs": [],
      "stateMutability": "nonpayable",
      "type": "function"
    },
    {
      "inputs": [],
      "name": "getEmergencyCouncil",
      "outputs": [
        {
          "internalType": "address",
          "name": "",
          "type": "address"
        }
      ],
      "stateMutability": "view",
      "type": "function"
    },
    {
      "inputs": [],
      "name": "getEmergencyModeStartingTime",
      "outputs": [
        {
          "internalType": "uint64",
          "name": "",
          "type": "uint64"
        }
      ],
      "stateMutability": "view",
      "type": "function"
    },
    {
      "inputs": [],
      "name": "getHermezGovernanceAddress",
      "outputs": [
        {
          "internalType": "address",
          "name": "",
          "type": "address"
        }
      ],
      "stateMutability": "view",
      "type": "function"
    },
    {
      "inputs": [],
      "name": "getWithdrawalDelay",
      "outputs": [
        {
          "internalType": "uint64",
          "name": "",
          "type": "uint64"
        }
      ],
      "stateMutability": "view",
      "type": "function"
    },
    {
      "inputs": [],
      "name": "hermezRollupAddress",
      "outputs": [
        {
          "internalType": "address",
          "name": "",
          "type": "address"
        }
      ],
      "stateMutability": "view",
      "type": "function"
    },
    {
      "inputs": [],
      "name": "isEmergencyMode",
      "outputs": [
        {
          "internalType": "bool",
          "name": "",
          "type": "bool"
        }
      ],
      "stateMutability": "view",
      "type": "function"
    },
    {
      "inputs": [],
      "name": "pendingEmergencyCouncil",
      "outputs": [
        {
          "internalType": "address payable",
          "name": "",
          "type": "address"
        }
      ],
      "stateMutability": "view",
      "type": "function"
    },
    {
      "inputs": [],
      "name": "pendingGovernance",
      "outputs": [
        {
          "internalType": "address",
          "name": "",
          "type": "address"
        }
      ],
      "stateMutability": "view",
      "type": "function"
    },
    {
      "inputs": [
        {
          "internalType": "address payable",
          "name": "newEmergencyCouncil",
          "type": "address"
        }
      ],
      "name": "transferEmergencyCouncil",
      "outputs": [],
      "stateMutability": "nonpayable",
      "type": "function"
    },
    {
      "inputs": [
        {
          "internalType": "address",
          "name": "newGovernance",
          "type": "address"
        }
      ],
      "name": "transferGovernance",
      "outputs": [],
      "stateMutability": "nonpayable",
      "type": "function"
    },
    {
      "inputs": [
        {
          "internalType": "address payable",
          "name": "_owner",
          "type": "address"
        },
        {
          "internalType": "address",
          "name": "_token",
          "type": "address"
        }
      ],
      "name": "withdrawal",
      "outputs": [],
      "stateMutability": "nonpayable",
      "type": "function"
    }
  ],
  "bytecode": "0x608060405234801561001057600080fd5b50604051611b70380380611b708339818101604052608081101561003357600080fd5b508051602082015160408301516060909301516001600055919290916001600160a01b0383166100945760405162461bcd60e51b8152600401808060200182810382526043815260200180611b2d6043913960600191505060405180910390fd5b600180546001600160401b0386166001600160401b03199091168117909155600680546001600160a01b038087166001600160a01b0319928316179092556002805486841690831681179091556005805460ff60a01b19948716931683179390931690925560408051938452602084019290925282820152517f8b81dca4c96ae06989fa8aa1baa4ccc05dfb42e0948c7d5b7505b68ccde41eec9181900360600190a1505050506119e38061014a6000396000f3fe60806040526004361061012a5760003560e01c80637fd6b102116100ab578063ca79033f1161006f578063ca79033f1461036a578063cfc0b6411461037f578063d38bfff4146103bf578063db2a1a81146103f2578063de35f28214610425578063f39c38a0146104605761012a565b80637fd6b102146102d357806399ef11c514610316578063a238f9df1461032b578063b4b8e39d14610340578063c5b1c7d0146103555761012a565b80633d4dff7b116100f25780633d4dff7b14610204578063493b0170146102595780635d36b19014610294578063668cdd67146102a957806367fa2403146102be5761012a565b8063031609401461012f5780630b21d430146101605780630e670af5146101915780630fd266d7146101c657806320a194b8146101db575b600080fd5b34801561013b57600080fd5b50610144610475565b604080516001600160401b039092168252519081900360200190f35b34801561016c57600080fd5b50610175610484565b604080516001600160a01b039092168252519081900360200190f35b34801561019d57600080fd5b506101c4600480360360208110156101b457600080fd5b50356001600160401b0316610493565b005b3480156101d257600080fd5b50610175610597565b3480156101e757600080fd5b506101f06105a6565b604080519115158252519081900360200190f35b34801561021057600080fd5b5061022e6004803603602081101561022757600080fd5b50356105b6565b604080516001600160c01b0390931683526001600160401b0390911660208301528051918290030190f35b34801561026557600080fd5b5061022e6004803603604081101561027c57600080fd5b506001600160a01b03813581169160200135166105e3565b3480156102a057600080fd5b506101c4610674565b3480156102b557600080fd5b5061014461071e565b3480156102ca57600080fd5b50610175610734565b3480156102df57600080fd5b506101c4600480360360608110156102f657600080fd5b506001600160a01b03813581169160208101359091169060400135610743565b34801561032257600080fd5b5061017561095a565b34801561033757600080fd5b50610144610969565b34801561034c57600080fd5b50610144610970565b34801561036157600080fd5b506101c4610977565b34801561037657600080fd5b506101c4610a73565b6101c46004803603606081101561039557600080fd5b5080356001600160a01b0390811691602081013590911690604001356001600160c01b0316610b1d565b3480156103cb57600080fd5b506101c4600480360360208110156103e257600080fd5b50356001600160a01b0316610e99565b3480156103fe57600080fd5b506101c46004803603602081101561041557600080fd5b50356001600160a01b0316610f04565b34801561043157600080fd5b506101c46004803603604081101561044857600080fd5b506001600160a01b0381358116916020013516610f6f565b34801561046c57600080fd5b506101756111bd565b6001546001600160401b031690565b6002546001600160a01b031690565b6002546001600160a01b03163314806104b657506006546001600160a01b031633145b6104f15760405162461bcd60e51b81526004018080602001828103825260438152602001806117306043913960600191505060405180910390fd5b621275006001600160401b038216111561053c5760405162461bcd60e51b81526004018080602001828103825260468152602001806118a56046913960600191505060405180910390fd5b6001805467ffffffffffffffff19166001600160401b03838116919091179182905560408051929091168252517f6b3670ab51e04a9da086741e5fd1eb36ffaf1d661a15330c528e1f3e0c8722d7916020908290030190a150565b6006546001600160a01b031681565b600554600160a01b900460ff1690565b6007602052600090815260409020546001600160c01b03811690600160c01b90046001600160401b031682565b6000806105ee6114f4565b505060408051606094851b6001600160601b03199081166020808401919091529490951b90941660348501528051808503602801815260488501808352815191850191909120600090815260079094529281902060888501909152546001600160c01b03811692839052600160c01b90046001600160401b031660689093018390525091565b6003546001600160a01b031633146106bd5760405162461bcd60e51b815260040180806020018281038252603b8152602001806116bf603b913960400191505060405180910390fd5b60038054600280546001600160a01b038084166001600160a01b03199283161792839055921690925560408051929091168252517f3bf02437d5cd40067085d9dac2c3cdcbef0a449d98a259a40d9c24380aca81bf916020908290030190a1565b600154600160401b90046001600160401b031690565b6004546001600160a01b031681565b6002600054141561079b576040805162461bcd60e51b815260206004820152601f60248201527f5265656e7472616e637947756172643a207265656e7472616e742063616c6c00604482015290519081900360640190fd5b6002600055600554600160a01b900460ff166107e85760405162461bcd60e51b81526004018080602001828103825260348152602001806115e66034913960400191505060405180910390fd5b6005546001600160a01b031633148061080b57506002546001600160a01b031633145b6108465760405162461bcd60e51b815260040180806020018281038252603981526020018061180e6039913960400191505060405180910390fd5b6005546001600160a01b03163314801561087157506002546005546001600160a01b03908116911614155b156108d3576001546001600160401b03600160401b909104811662eff1000181164290911610156108d35760405162461bcd60e51b81526004018080602001828103825260448152602001806116496044913960600191505060405180910390fd5b6001600160a01b0382166108f0576108eb83826111cc565b6108fb565b6108fb828483611261565b816001600160a01b0316836001600160a01b0316336001600160a01b03167fde200220117ba95c9a6c4a1a13bb06b0b7be90faa85c8fb4576630119f891693846040518082815260200191505060405180910390a45050600160005550565b6005546001600160a01b031690565b6212750081565b62eff10081565b6002546001600160a01b031633146109c05760405162461bcd60e51b81526004018080602001828103825260378152602001806119206037913960400191505060405180910390fd5b600554600160a01b900460ff1615610a095760405162461bcd60e51b81526004018080602001828103825260378152602001806115af6037913960400191505060405180910390fd5b6005805460ff60a01b1916600160a01b179055600180546001600160401b034216600160401b026fffffffffffffffff0000000000000000199091161790556040517f2064d51aa5a8bd67928c7675e267e05c67ad5adf7c9098d0a602d01f36fda9c590600090a1565b6004546001600160a01b03163314610abc5760405162461bcd60e51b81526004018080602001828103825260418152602001806115346041913960600191505060405180910390fd5b60048054600580546001600160a01b038084166001600160a01b03199283161792839055921690925560408051929091168252517fcc267667d474ef34ee2de2d060e7c8b2c7295cefa22e57fd7049e22b5fdb5396916020908290030190a1565b60026000541415610b75576040805162461bcd60e51b815260206004820152601f60248201527f5265656e7472616e637947756172643a207265656e7472616e742063616c6c00604482015290519081900360640190fd5b60026000556006546001600160a01b03163314610bc35760405162461bcd60e51b81526004018080602001828103825260278152602001806117b66027913960400191505060405180910390fd5b3415610c5b576001600160a01b03821615610c0f5760405162461bcd60e51b815260040180806020018281038252602f81526020018061161a602f913960400191505060405180910390fd5b34816001600160c01b031614610c565760405162461bcd60e51b815260040180806020018281038252602881526020018061150c6028913960400191505060405180910390fd5b610e84565b60065460408051636eb1769f60e11b81526001600160a01b03928316600482015230602482015290516001600160c01b0384169285169163dd62ed3e916044808301926020929190829003018186803b158015610cb757600080fd5b505afa158015610ccb573d6000803e3d6000fd5b505050506040513d6020811015610ce157600080fd5b50511015610d205760405162461bcd60e51b81526004018080602001828103825260308152602001806119576030913960400191505060405180910390fd5b600654604080516001600160a01b0392831660248201523060448201526001600160c01b03841660648083019190915282518083039091018152608490910182526020810180516001600160e01b03166323b872dd60e01b178152915181516000946060949088169392918291908083835b60208310610db15780518252601f199092019160209182019101610d92565b6001836020036101000a0380198251168184511680821785525050505050509050019150506000604051808303816000865af19150503d8060008114610e13576040519150601f19603f3d011682016040523d82523d6000602084013e610e18565b606091505b5091509150818015610e46575080511580610e465750808060200190516020811015610e4357600080fd5b50515b610e815760405162461bcd60e51b81526004018080602001828103825260318152602001806117dd6031913960400191505060405180910390fd5b50505b610e8f8383836113b5565b5050600160005550565b6002546001600160a01b03163314610ee25760405162461bcd60e51b81526004018080602001828103825260368152602001806116fa6036913960400191505060405180910390fd5b600380546001600160a01b0319166001600160a01b0392909216919091179055565b6005546001600160a01b03163314610f4d5760405162461bcd60e51b81526004018080602001828103825260438152602001806117736043913960600191505060405180910390fd5b600480546001600160a01b0319166001600160a01b0392909216919091179055565b60026000541415610fc7576040805162461bcd60e51b815260206004820152601f60248201527f5265656e7472616e637947756172643a207265656e7472616e742063616c6c00604482015290519081900360640190fd5b6002600055600554600160a01b900460ff16156110155760405162461bcd60e51b815260040180806020018281038252602a815260200180611847602a913960400191505060405180910390fd5b60408051606084811b6001600160601b03199081166020808501919091529185901b166034830152825180830360280181526048909201835281519181019190912060008181526007909252919020546001600160c01b0316806110aa5760405162461bcd60e51b81526004018080602001828103825260278152602001806119876027913960400191505060405180910390fd5b6001546000838152600760205260409020546001600160401b03918216600160c01b90910482160181164290911610156111155760405162461bcd60e51b81526004018080602001828103825260358152602001806118eb6035913960400191505060405180910390fd5b6000828152600760205260408120556001600160a01b03831661114a5761114584826001600160c01b03166111cc565b61115e565b61115e8385836001600160c01b0316611261565b836001600160a01b0316836001600160a01b03167f72608e45b52a95a12c2ac7f15ff53f92fc9572c9d84b6e6b5d7f0f7826cf32718360405180826001600160c01b0316815260200191505060405180910390a3505060016000555050565b6003546001600160a01b031681565b6040516000906001600160a01b0384169083908381818185875af1925050503d8060008114611217576040519150601f19603f3d011682016040523d82523d6000602084013e61121c565b606091505b505090508061125c5760405162461bcd60e51b815260040180806020018281038252603281526020018061168d6032913960400191505060405180910390fd5b505050565b604080516001600160a01b038481166024830152604480830185905283518084039091018152606490920183526020820180516001600160e01b031663a9059cbb60e01b178152925182516000946060949389169392918291908083835b602083106112de5780518252601f1990920191602091820191016112bf565b6001836020036101000a0380198251168184511680821785525050505050509050019150506000604051808303816000865af19150503d8060008114611340576040519150601f19603f3d011682016040523d82523d6000602084013e611345565b606091505b5091509150818015611373575080511580611373575080806020019051602081101561137057600080fd5b50515b6113ae5760405162461bcd60e51b815260040180806020018281038252603a815260200180611575603a913960400191505060405180910390fd5b5050505050565b60408051606085811b6001600160601b03199081166020808501919091529186901b166034830152825180830360280181526048909201835281519181019190912060008181526007909252919020546001600160c01b0390811683810191821610156114535760405162461bcd60e51b81526004018080602001828103825260348152602001806118716034913960400191505060405180910390fd5b60008281526007602090815260409182902080546001600160401b03428116600160c01b9081026001600160c01b038089166001600160c01b03199095169490941784161793849055855192891683529092049091169181019190915281516001600160a01b0380881693908916927f41219b99485f78192a5b9b1be28c7d53c3a2bdbe7900ae40c79fae8d9d6108fd929081900390910190a35050505050565b60408051808201909152600080825260208201529056fe5769746864726177616c44656c617965723a3a6465706f7369743a2057524f4e475f414d4f554e545769746864726177616c44656c617965723a3a636c61696d456d657267656e6379436f756e63696c3a204f4e4c595f50454e44494e475f474f5645524e414e43455769746864726177616c44656c617965723a3a5f746f6b656e5769746864726177616c3a20544f4b454e5f5452414e534645525f4641494c45445769746864726177616c44656c617965723a3a656e61626c65456d657267656e63794d6f64653a20414c52454144595f454e41424c45445769746864726177616c44656c617965723a3a65736361706548617463685769746864726177616c3a204f4e4c595f454d4f44455769746864726177616c44656c617965723a3a6465706f7369743a2057524f4e475f544f4b454e5f414444524553535769746864726177616c44656c617965723a3a65736361706548617463685769746864726177616c3a204e4f5f4d41585f454d455247454e43595f4d4f44455f54494d455769746864726177616c44656c617965723a3a5f6574685769746864726177616c3a205452414e534645525f4641494c45445769746864726177616c44656c617965723a3a636c61696d476f7665726e616e63653a204f4e4c595f50454e44494e475f474f5645524e414e43455769746864726177616c44656c617965723a3a7472616e73666572476f7665726e616e63653a204f4e4c595f474f5645524e414e43455769746864726177616c44656c617965723a3a6368616e67655769746864726177616c44656c61793a204f4e4c595f524f4c4c55505f4f525f474f5645524e414e43455769746864726177616c44656c617965723a3a7472616e73666572456d657267656e6379436f756e63696c3a204f4e4c595f454d455247454e43595f434f554e43494c5769746864726177616c44656c617965723a3a6465706f7369743a204f4e4c595f524f4c4c55505769746864726177616c44656c617965723a3a6465706f7369743a20544f4b454e5f5452414e534645525f4641494c45445769746864726177616c44656c617965723a3a65736361706548617463685769746864726177616c3a204f4e4c595f474f5645524e414e43455769746864726177616c44656c617965723a3a6465706f7369743a20454d455247454e43595f4d4f44455769746864726177616c44656c617965723a3a5f70726f636573734465706f7369743a204445504f5349545f4f564552464c4f575769746864726177616c44656c617965723a3a6368616e67655769746864726177616c44656c61793a20455843454544535f4d41585f5749544844524157414c5f44454c41595769746864726177616c44656c617965723a3a7769746864726177616c3a205749544844524157414c5f4e4f545f414c4c4f5745445769746864726177616c44656c617965723a3a656e61626c65456d657267656e63794d6f64653a204f4e4c595f474f5645524e414e43455769746864726177616c44656c617965723a3a6465706f7369743a204e4f545f454e4f5547485f414c4c4f57414e43455769746864726177616c44656c617965723a3a7769746864726177616c3a204e4f5f46554e4453a2646970667358221220c4d2d2ed93c1882b6ac4ed396f96e7cb641d8d532478667c300863af7ce1fa4264736f6c634300060c00335769746864726177616c44656c617965723a3a7769746864726177616c44656c61796572496e697469616c697a657220414444524553535f305f4e4f545f56414c4944",
  "linkReferences": {},
  "deployedLinkReferences": {}
}